{
  "contractName": "Lock",
  "abi": [
    {
      "constant": true,
      "inputs": [],
      "name": "owner",
      "outputs": [
        {
          "name": "",
          "type": "address"
        }
      ],
      "payable": false,
      "stateMutability": "view",
      "type": "function"
    },
    {
      "constant": true,
      "inputs": [
        {
          "name": "",
          "type": "address"
        }
      ],
      "name": "locked",
      "outputs": [
        {
          "name": "value",
          "type": "uint256"
        },
        {
          "name": "until",
          "type": "uint256"
        }
      ],
      "payable": false,
      "stateMutability": "view",
      "type": "function"
    },
    {
      "inputs": [],
      "payable": false,
      "stateMutability": "nonpayable",
      "type": "constructor"
    },
    {
      "anonymous": false,
      "inputs": [
        {
          "indexed": true,
          "name": "sender",
          "type": "address"
        },
        {
          "indexed": false,
          "name": "value",
          "type": "uint256"
        }
      ],
      "name": "FundsLocked",
      "type": "event"
    },
    {
      "constant": false,
      "inputs": [],
      "name": "lock",
      "outputs": [],
      "payable": true,
      "stateMutability": "payable",
      "type": "function"
    },
    {
      "constant": false,
      "inputs": [],
      "name": "unlock",
      "outputs": [],
      "payable": false,
      "stateMutability": "nonpayable",
      "type": "function"
    },
    {
      "constant": false,
      "inputs": [],
      "name": "withdraw",
      "outputs": [],
      "payable": false,
      "stateMutability": "nonpayable",
      "type": "function"
    }
  ],
  "bytecode": "0x6060604052341561000f57600080fd5b336000806101000a81548173ffffffffffffffffffffffffffffffffffffffff021916908373ffffffffffffffffffffffffffffffffffffffff1602179055506105078061005e6000396000f30060606040526004361061006d576000357c0100000000000000000000000000000000000000000000000000000000900463ffffffff1680633ccfd60b146100725780638da5cb5b14610087578063a69df4b5146100dc578063cbf9fe5f146100f1578063f83d08ba14610145575b600080fd5b341561007d57600080fd5b61008561014f565b005b341561009257600080fd5b61009a610224565b604051808273ffffffffffffffffffffffffffffffffffffffff1673ffffffffffffffffffffffffffffffffffffffff16815260200191505060405180910390f35b34156100e757600080fd5b6100ef610249565b005b34156100fc57600080fd5b610128600480803573ffffffffffffffffffffffffffffffffffffffff16906020019091905050610371565b604051808381526020018281526020019250505060405180910390f35b61014d610395565b005b6000809054906101000a900473ffffffffffffffffffffffffffffffffffffffff1673ffffffffffffffffffffffffffffffffffffffff163373ffffffffffffffffffffffffffffffffffffffff161415156101aa57600080fd5b6000809054906101000a900473ffffffffffffffffffffffffffffffffffffffff1673ffffffffffffffffffffffffffffffffffffffff166108fc3073ffffffffffffffffffffffffffffffffffffffff16319081150290604051600060405180830381858888f19350505050151561022257600080fd5b565b6000809054906101000a900473ffffffffffffffffffffffffffffffffffffffff1681565b6102516104c1565b600160003373ffffffffffffffffffffffffffffffffffffffff1673ffffffffffffffffffffffffffffffffffffffff16815260200190815260200160002060408051908101604052908160008201548152602001600182015481525050905060008160000151141515156102c557600080fd5b438160200151101515156102d857600080fd5b600160003373ffffffffffffffffffffffffffffffffffffffff1673ffffffffffffffffffffffffffffffffffffffff168152602001908152602001600020600080820160009055600182016000905550503373ffffffffffffffffffffffffffffffffffffffff166108fc82600001519081150290604051600060405180830381858888f19350505050151561036e57600080fd5b50565b60016020528060005260406000206000915090508060000154908060010154905082565b34600160003373ffffffffffffffffffffffffffffffffffffffff1673ffffffffffffffffffffffffffffffffffffffff1681526020019081526020016000206000016000828254019250508190555060054301600160003373ffffffffffffffffffffffffffffffffffffffff1673ffffffffffffffffffffffffffffffffffffffff168152602001908152602001600020600101819055503373ffffffffffffffffffffffffffffffffffffffff167f1423e2a671bcc71c56f3c3cb78e3c96473d3ca5eb061acd0b93d1d0a6617f658600160003373ffffffffffffffffffffffffffffffffffffffff1673ffffffffffffffffffffffffffffffffffffffff168152602001908152602001600020600001546040518082815260200191505060405180910390a2565b6040805190810160405280600081526020016000815250905600a165627a7a72305820df70167217b93cf8a495ad5157352266f1050d1788a352060e4a479196d05ccd0029",
  "source": "pragma solidity ^0.4.21;\n\ncontract Lock {\n    struct LockedFunds { uint256 value; uint256 until; }\n    address public owner;\n    mapping(address => LockedFunds) public locked;\n     \n    // Declare an event\n    event FundsLocked(address indexed sender, uint256 value);\n    \n    function Lock() public { owner = msg.sender; }\n\n    function lock() public payable {\n        locked[msg.sender].value += msg.value;\n        locked[msg.sender].until = block.number + 5;\n        \n        // emit an event\n        emit FundsLocked(msg.sender, locked[msg.sender].value);\n    }\n    function unlock() public {\n        LockedFunds memory data = locked[msg.sender];\n        require(data.value != 0);\n        require(data.until >= block.number);\n        delete locked[msg.sender];\n        msg.sender.transfer(data.value);\n    }\n\n    function withdraw() public {\n        require(msg.sender == owner);\n        owner.transfer(address(this).balance);\n    }\n}\n",
  "sourcePath": "/home/tomusdrw/workspace/devmeeting-blockchain/4-truffle/4-truffle/contracts/Lock.sol",
  "compiler": {
    "name": "solc",
    "version": "0.4.21+commit.dfe3193c.Emscripten.clang"
  },
  "schemaVersion": "2.0.0",
  "updatedAt": "2018-04-06T21:50:29.184Z"
}